{
  "contractName": "Votacion",
  "abi": [
    {
      "constant": true,
      "inputs": [
        {
          "name": "",
          "type": "bytes32"
        }
      ],
      "name": "votesReceived",
      "outputs": [
        {
          "name": "",
          "type": "uint8"
        }
      ],
      "payable": false,
      "stateMutability": "view",
      "type": "function"
    },
    {
      "constant": true,
      "inputs": [
        {
          "name": "",
          "type": "uint256"
        }
      ],
      "name": "candidateList",
      "outputs": [
        {
          "name": "",
          "type": "bytes32"
        }
      ],
      "payable": false,
      "stateMutability": "view",
      "type": "function"
    },
    {
      "inputs": [
        {
          "name": "candidateNames",
          "type": "bytes32[]"
        }
      ],
      "payable": false,
      "stateMutability": "nonpayable",
      "type": "constructor"
    },
    {
      "constant": true,
      "inputs": [
        {
          "name": "candidate",
          "type": "bytes32"
        }
      ],
      "name": "totalVotesFor",
      "outputs": [
        {
          "name": "",
          "type": "uint8"
        }
      ],
      "payable": false,
      "stateMutability": "view",
      "type": "function"
    },
    {
      "constant": false,
      "inputs": [
        {
          "name": "candidate",
          "type": "bytes32"
        }
      ],
      "name": "voteForCandidate",
      "outputs": [],
      "payable": true,
      "stateMutability": "payable",
      "type": "function"
    },
    {
      "constant": true,
      "inputs": [
        {
          "name": "candidate",
          "type": "bytes32"
        }
      ],
      "name": "validCandidate",
      "outputs": [
        {
          "name": "",
          "type": "bool"
        }
      ],
      "payable": false,
      "stateMutability": "view",
      "type": "function"
    },
    {
      "constant": true,
      "inputs": [],
      "name": "getTotalCandidatesList",
      "outputs": [
        {
          "name": "",
          "type": "uint256"
        }
      ],
      "payable": false,
      "stateMutability": "view",
      "type": "function"
    }
  ],
  "bytecode": "0x608060405234801561001057600080fd5b5060405161060a38038061060a8339810180604052602081101561003357600080fd5b81019080805164010000000081111561004b57600080fd5b8281019050602081018481111561006157600080fd5b815185602082028301116401000000008211171561007e57600080fd5b5050929190505050336000806101000a81548173ffffffffffffffffffffffffffffffffffffffff021916908373ffffffffffffffffffffffffffffffffffffffff16021790555080600290805190602001906100dc9291906100e3565b5050610155565b82805482825590600052602060002090810192821561011f579160200282015b8281111561011e578251825591602001919060010190610103565b5b50905061012c9190610130565b5090565b61015291905b8082111561014e576000816000905550600101610136565b5090565b90565b6104a6806101646000396000f3fe6080604052600436106100555760003560e01c80632f265cf71461005a578063392e6678146100af5780637021939f14610102578063abe40cd414610157578063b13c744b14610182578063cc9ab267146101d1575b600080fd5b34801561006657600080fd5b506100936004803603602081101561007d57600080fd5b81019080803590602001909291905050506101ff565b604051808260ff1660ff16815260200191505060405180910390f35b3480156100bb57600080fd5b506100e8600480360360208110156100d257600080fd5b81019080803590602001909291905050506102a4565b604051808215151515815260200191505060405180910390f35b34801561010e57600080fd5b5061013b6004803603602081101561012557600080fd5b81019080803590602001909291905050506102fa565b604051808260ff1660ff16815260200191505060405180910390f35b34801561016357600080fd5b5061016c61031a565b6040518082815260200191505060405180910390f35b34801561018e57600080fd5b506101bb600480360360208110156101a557600080fd5b8101908080359060200190929190505050610327565b6040518082815260200191505060405180910390f35b6101fd600480360360208110156101e757600080fd5b8101908080359060200190929190505050610348565b005b600061020a826102a4565b61027c576040517f08c379a000000000000000000000000000000000000000000000000000000000815260040180806020018281038252601c8152602001807f5468652063616e64696461746520646f73656e2774206578697374730000000081525060200191505060405180910390fd5b6001600083815260200190815260200160002060009054906101000a900460ff169050919050565b600080600090505b6002805490508110156102ef5782600282815481106102c757fe5b906000526020600020015414156102e25760019150506102f5565b80806001019150506102ac565b50600090505b919050565b60016020528060005260406000206000915054906101000a900460ff1681565b6000600280549050905090565b6002818154811061033457fe5b906000526020600020016000915090505481565b600034116103be576040517f08c379a00000000000000000000000000000000000000000000000000000000081526004018080602001828103825260138152602001807f596f75206d7573742073656e642065746865720000000000000000000000000081525060200191505060405180910390fd5b6103c7816102a4565b610439576040517f08c379a000000000000000000000000000000000000000000000000000000000815260040180806020018281038252601c8152602001807f5468652063616e64696461746520646f73656e2774206578697374730000000081525060200191505060405180910390fd5b600180600083815260200190815260200160002060008282829054906101000a900460ff160192506101000a81548160ff021916908360ff1602179055505056fea165627a7a72305820839206dfe00b8f31d4a6577cc216300b5c59ad0fa269f992a632bf14242ce6ab0029",
  "source": "pragma solidity ^0.5.8;\n\ncontract Votacion {\n  address owner;\n  mapping (bytes32 => uint8) public votesReceived;\n  bytes32[] public candidateList;\n  // bytes32 public candidateList;\n\n  constructor(bytes32[] memory candidateNames) public {\n    owner = msg.sender;\n    candidateList = candidateNames;\n    // for(uint i = 0 ; i < candidateNames.length; i++)\n    //   candidateList.push(candidateNames[i]);\n  }\n\n //es byte y no string porque sino tengo que hacer una conversion y eso consume más gas\n  function totalVotesFor(bytes32 candidate) public view returns (uint8) {\n    require(validCandidate(candidate), \"The candidate dosen't exists\");\n    return votesReceived[candidate];\n  }\n\n  function voteForCandidate(bytes32 candidate) public payable {\n    require(msg.value > 0, \"You must send ether\");\n    require(validCandidate(candidate), \"The candidate dosen't exists\");\n    votesReceived[candidate] += 1;\n  }\n\n //esta funcion no modifica nada de la blockchain no puedo editar nada o sino no es VIEW\n  function validCandidate(bytes32 candidate) public view returns (bool) {\n    for(uint i = 0; i < candidateList.length; i++) {\n      if (candidateList[i] == candidate) {\n        return true;\n      }\n    }\n    return false;\n  }\n\n  function getTotalCandidatesList() public view returns (uint) {\n    return candidateList.length;\n  }\n\n}\n\n//se puede hacer una mejora en el array candidateList por uno din�mico para agergar m�s candidatos\n",
  "sourcePath": "C:/source/Class7-BlockChain-Web3/first-dapp-angular1.7/contracts/Votacion.sol",
  "compiler": {
    "name": "solc",
    "version": "0.5.8+commit.23d335f2.Emscripten.clang"
  },
  "schemaVersion": "3.0.10",
  "updatedAt": "2019-07-27T17:19:59.652Z",
  "devdoc": {
    "methods": {}
  },
  "userdoc": {
    "methods": {}
  }
}