{
  "contractName": "Votacion",
  "abi": [
    {
      "constant": true,
      "inputs": [
        {
          "name": "",
          "type": "bytes32"
        }
      ],
      "name": "votesReceived",
      "outputs": [
        {
          "name": "",
          "type": "uint8"
        }
      ],
      "payable": false,
      "stateMutability": "view",
      "type": "function"
    },
    {
      "constant": true,
      "inputs": [
        {
          "name": "",
          "type": "uint256"
        }
      ],
      "name": "candidateList",
      "outputs": [
        {
          "name": "",
          "type": "bytes32"
        }
      ],
      "payable": false,
      "stateMutability": "view",
      "type": "function"
    },
    {
      "inputs": [
        {
          "name": "candidateNames",
          "type": "bytes32[]"
        }
      ],
      "payable": false,
      "stateMutability": "nonpayable",
      "type": "constructor"
    },
    {
      "constant": true,
      "inputs": [
        {
          "name": "candidate",
          "type": "bytes32"
        }
      ],
      "name": "totalVotesFor",
      "outputs": [
        {
          "name": "",
          "type": "uint8"
        }
      ],
      "payable": false,
      "stateMutability": "view",
      "type": "function"
    },
    {
      "constant": false,
      "inputs": [
        {
          "name": "candidate",
          "type": "bytes32"
        }
      ],
      "name": "voteForCandidate",
      "outputs": [],
      "payable": false,
      "stateMutability": "nonpayable",
      "type": "function"
    },
    {
      "constant": true,
      "inputs": [
        {
          "name": "candidate",
          "type": "bytes32"
        }
      ],
      "name": "validCandidate",
      "outputs": [
        {
          "name": "",
          "type": "bool"
        }
      ],
      "payable": false,
      "stateMutability": "view",
      "type": "function"
    },
    {
      "constant": true,
      "inputs": [],
      "name": "getTotalCandidatesList",
      "outputs": [
        {
          "name": "",
          "type": "uint256"
        }
      ],
      "payable": false,
      "stateMutability": "view",
      "type": "function"
    }
  ],
  "bytecode": "0x608060405234801561001057600080fd5b506040516105603803806105608339810180604052602081101561003357600080fd5b81019080805164010000000081111561004b57600080fd5b8281019050602081018481111561006157600080fd5b815185602082028301116401000000008211171561007e57600080fd5b5050929190505050336000806101000a81548173ffffffffffffffffffffffffffffffffffffffff021916908373ffffffffffffffffffffffffffffffffffffffff16021790555080600290805190602001906100dc9291906100e3565b5050610155565b82805482825590600052602060002090810192821561011f579160200282015b8281111561011e578251825591602001919060010190610103565b5b50905061012c9190610130565b5090565b61015291905b8082111561014e576000816000905550600101610136565b5090565b90565b6103fc806101646000396000f3fe608060405234801561001057600080fd5b50600436106100625760003560e01c80632f265cf714610067578063392e6678146100af5780637021939f146100f5578063abe40cd41461013d578063b13c744b1461015b578063cc9ab2671461019d575b600080fd5b6100936004803603602081101561007d57600080fd5b81019080803590602001909291905050506101cb565b604051808260ff1660ff16815260200191505060405180910390f35b6100db600480360360208110156100c557600080fd5b8101908080359060200190929190505050610270565b604051808215151515815260200191505060405180910390f35b6101216004803603602081101561010b57600080fd5b81019080803590602001909291905050506102c6565b604051808260ff1660ff16815260200191505060405180910390f35b6101456102e6565b6040518082815260200191505060405180910390f35b6101876004803603602081101561017157600080fd5b81019080803590602001909291905050506102f3565b6040518082815260200191505060405180910390f35b6101c9600480360360208110156101b357600080fd5b8101908080359060200190929190505050610314565b005b60006101d682610270565b610248576040517f08c379a000000000000000000000000000000000000000000000000000000000815260040180806020018281038252600a8152602001807f536f6d65204572726f720000000000000000000000000000000000000000000081525060200191505060405180910390fd5b6001600083815260200190815260200160002060009054906101000a900460ff169050919050565b600080600090505b6002805490508110156102bb57826002828154811061029357fe5b906000526020600020015414156102ae5760019150506102c1565b8080600101915050610278565b50600090505b919050565b60016020528060005260406000206000915054906101000a900460ff1681565b6000600280549050905090565b6002818154811061030057fe5b906000526020600020016000915090505481565b61031d81610270565b61038f576040517f08c379a000000000000000000000000000000000000000000000000000000000815260040180806020018281038252600a8152602001807f536f6d65204572726f720000000000000000000000000000000000000000000081525060200191505060405180910390fd5b600180600083815260200190815260200160002060008282829054906101000a900460ff160192506101000a81548160ff021916908360ff1602179055505056fea165627a7a72305820c871f636fcd3ba1a369c49a69a723add603e07a6635eec78f2bfc627446e6fd70029",
  "source": "pragma solidity ^0.5.8;\n\ncontract Votacion {\n  address owner;\n  mapping (bytes32 => uint8) public votesReceived;\n  bytes32[] public candidateList;\n  // bytes32 public candidateList;\n\n  constructor(bytes32[] memory candidateNames) public {\n    owner = msg.sender;\n    candidateList = candidateNames;\n    // for(uint i = 0 ; i < candidateNames.length; i++)\n    //   candidateList.push(candidateNames[i]);\n  }\n\n //es byte y no string porque sino tengo que hacer una conversion y eso consume más gas\n  function totalVotesFor(bytes32 candidate) public view returns (uint8) {\n    require(validCandidate(candidate), \"Some Error\");\n    return votesReceived[candidate];\n  }\n\n  function voteForCandidate(bytes32 candidate) public {\n    require(validCandidate(candidate), \"Some Error\");\n    votesReceived[candidate] += 1;\n  }\n\n //esta funcion no modifica nada de la blockchain no puedo editar nada o sino no es VIEW\n  function validCandidate(bytes32 candidate) public view returns (bool) {\n    for(uint i = 0; i < candidateList.length; i++) {\n      if (candidateList[i] == candidate) {\n        return true;\n      }\n    }\n    return false;\n  }\n\n  function getTotalCandidatesList() public view returns (uint) {\n    return candidateList.length;\n  }\n\n}\n\n//se puede hacer una mejora en el array candidateList por uno din�mico para agergar m�s candidatos\n",
  "sourcePath": "C:/source/Class7-BlockChain-Web3/first-dapp-angular1.7/contracts/Votacion.sol",
  "compiler": {
    "name": "solc",
    "version": "0.5.8+commit.23d335f2.Emscripten.clang"
  },
  "schemaVersion": "3.0.10",
  "updatedAt": "2019-07-15T20:10:03.104Z",
  "devdoc": {
    "methods": {}
  },
  "userdoc": {
    "methods": {}
  }
}